{
  "transactions": [
    {
      "hash": "0xa933622f195c28af8b5f5ed60a79a65aa0f7aec8689812c0b61ca975390ea7ad",
      "transactionType": "CALL",
      "contractName": "MyNFT",
      "contractAddress": "0xe76481514f2fd5432b27f22a6470ab8f771f7f3d",
      "function": "safeMint(address)",
      "arguments": [
        "0xB62ef83643A2F8c95dF78F694C6Bf480f5b786f2"
      ],
      "transaction": {
        "from": "0x68908bc19fec2ee94347eccf4f80f405d728b7e8",
        "to": "0xe76481514f2fd5432b27f22a6470ab8f771f7f3d",
        "gas": "0x1c1ba",
        "value": "0x0",
        "input": "0x40d097c3000000000000000000000000b62ef83643a2f8c95df78f694c6bf480f5b786f2",
        "nonce": "0x1",
        "chainId": "0x96",
        "accessList": null,
        "type": null
      },
      "additionalContracts": [],
      "isFixedGasLimit": false
    }
  ],
  "receipts": [
    {
      "status": "0x1",
      "cumulativeGasUsed": "0x13382",
      "logs": [
        {
          "address": "0xe76481514f2fd5432b27f22a6470ab8f771f7f3d",
          "topics": [
            "0xddf252ad1be2c89b69c2b068fc378daa952ba7f163c4a11628f55a4df523b3ef",
            "0x0000000000000000000000000000000000000000000000000000000000000000",
            "0x000000000000000000000000b62ef83643a2f8c95df78f694c6bf480f5b786f2",
            "0x0000000000000000000000000000000000000000000000000000000000000001"
          ],
          "data": "0x",
          "blockHash": "0xd3be39bce821d0ff2c679869464a1d0c19f10e6e28c2d6d335cd1ad6fbf04986",
          "blockNumber": "0x7c045f",
          "transactionHash": "0xa933622f195c28af8b5f5ed60a79a65aa0f7aec8689812c0b61ca975390ea7ad",
          "transactionIndex": "0x0",
          "logIndex": "0x0",
          "removed": false
        }
      ],
      "logsBloom": "0x000000000000000000000000000000000000000000000000000000000000000000000000000000000000000000000000000000000000000000000000000400000000000000000000000000080000000000000000000400000000000000000000000000000200000000000000000008000000000000000100000000100000000000000000000000000000000000000000000000000000000000000000000000000000000000000000000002000000000000000000000000000000000000000000000000020080000000000000000000000000000200000000000000000000e0000000000000000000000010000000000000000000000000000000000000000000",
      "type": "0x2",
      "transactionHash": "0xa933622f195c28af8b5f5ed60a79a65aa0f7aec8689812c0b61ca975390ea7ad",
      "transactionIndex": "0x0",
      "blockHash": "0xd3be39bce821d0ff2c679869464a1d0c19f10e6e28c2d6d335cd1ad6fbf04986",
      "blockNumber": "0x7c045f",
      "gasUsed": "0x13382",
      "effectiveGasPrice": "0x48c27395000",
      "from": "0x68908bc19fec2ee94347eccf4f80f405d728b7e8",
      "to": "0xe76481514f2fd5432b27f22a6470ab8f771f7f3d",
      "contractAddress": null
    }
  ],
  "libraries": [],
  "pending": [],
  "returns": {},
  "timestamp": 1713981199,
  "chain": 150,
  "commit": "e9f811c"
}